:020000040800F2
:1000000000040020DF010008D5070008B906000839
:10001000910700081D050008850F0008000000007A
:10002000000000000000000000000000C5080008FB
:100030002D0500080000000081080008850A00085E
:10004000FF010008FF010008FF010008FF01000890
:10005000FF010008FF010008FF010008FF01000880
:10006000FF010008FF010008FF010008FF01000870
:10007000FF010008FF010008FF010008FF01000860
:10008000FF010008FF010008FF010008FF01000850
:10009000FF010008FF010008FF010008FF01000840
:1000A000FF010008FF010008FF010008FF01000830
:1000B000FF010008FF010008FF010008FF01000820
:1000C000FF010008FF010008FF010008FF01000810
:1000D000FF010008ED0D0008FF010008FF01000806
:1000E000FF010008FF010008FF010008FF010008F0
:1000F000FF010008FF010008FF010008FF010008E0
:10010000FF010008FF010008FF010008FF010008CF
:10011000FF010008FF010008FF010008FF010008BF
:10012000FF010008FF010008FF010008FF010008AF
:1001300000F002F800F042F80AA090E8000C8244B7
:100140008344AAF10107DA4501D100F037F8AFF294
:10015000090EBAE80F0013F0010F18BFFB1A43F0A5
:1001600001031847700F0000900F0000103A24BFE1
:1001700078C878C1FAD8520724BF30C830C144BF0C
:1001800004680C607047000000230024002500264E
:10019000103A28BF78C1FBD8520728BF30C148BFEA
:1001A0000B607047642900F0A980632900F0498141
:1001B000002070471FB51FBD10B510BD00F07CF9C1
:1001C0001146FFF7F7FF00F05FFF00F09AF903B464
:1001D000FFF7F2FF03BC00F0D7FE000070470B48AA
:1001E00080470B4981F308880A480047FEE7FEE78D
:1001F000FEE7FEE7FEE7FEE7FEE7FEE7FEE7FEE7D7
:1002000005480649044A064B70470000DD01000816
:100210009802002031010008980000209802002078
:1002200098000020704700000FB4044910B503AADD
:10023000029800F013F910BC5DF814FB24000020B4
:100240002DE9F0410E460446002020622046E16878
:10025000884730B3252805D0D4E901219047206A8A
:10026000401CF2E7E168204600278847050018D0C7
:10027000A5F14100192802D820354FF40067324615
:10028000294620462760FFF78DFF40B1012804D0A2
:10029000F61D26F007060836D8E7361DD6E72846AD
:1002A000DAE7206ABDE8F08170B50C460546012A00
:1002B00005D02878800600D5EA69002302E00123F2
:1002C00005E05B1C934202D2E05C0028F9D1A869EA
:1002D000E618C01AA861286A184428622846AFF3B5
:1002E000008004E0D5E9012114F8010B9047B442E5
:1002F000F8D32846AFF3008070BD00002DE9F0412F
:100300000646002410687529314616A510D0AFF3B3
:100310000080002802DA404213A507E031688A070E
:1003200001D512A502E0490704D511A5012401E079
:10033000AFF3008000210A2206F1240709E0B0FB98
:10034000F2FCB0FBF2F302FB1C003030785418468C
:10035000491C0028F3D123462A463046BDE8F04127
:1003600000F00CB8000000002D0000002B00000081
:100370002000000070477047704770472DE9F04734
:100380000D4699469246044600F124080168880605
:1003900004D5E06921F01001216000E00120A842AD
:1003A00001DD471B00E00027A1697A1902EB090073
:1003B000081AA0612078C00602D42046AFF300805E
:1003C000002608E0D4E901211AF806009047206AC7
:1003D000401C761C20624E45F4DB2078C0060AD50E
:1003E0002046AFF3008006E0D4E901213020904799
:1003F000206A401C2062381EA7F10107F4DC07E0E8
:10040000D4E9012118F805009047206A401C2062B9
:10041000281EA5F10105F3DC2046AFF3008020780B
:10042000000602D50220BDE8F0870120FBE710B5E9
:10043000436913B1AFF3008001E0FFF735FF0120FE
:1004400010BD127800F124010A7000224A700122C6
:10045000EDE711684FF0FF32E9E70000074B70B598
:100460000D467B4400F011F80446284600F020F8C1
:1004700010B14FF0FF3070BD204670BD070C00007A
:1004800001694A1C02610878704700B58FB0CDE958
:1004900001310021059105497944CDE90310114648
:1004A0006846FFF7CDFE0FB000BD0000E5FFFFFF7F
:1004B000007B00F080007047754600F02BF8AE46D8
:1004C00005006946534620F00700854618B020B560
:1004D000FFF796FEBDE820404FF000064FF0000702
:1004E0004FF000084FF0000B21F00701AC46ACE8DC
:1004F000C009ACE8C009ACE8C009ACE8C0098D4649
:10050000704710B50446AFF300802046BDE81040A8
:10051000FFF75DBE004870473800002000BFFEE7CF
:1005200010B50021084600F0CFF910BD704700005B
:1005300010B504464C2C15D004DC422C0DD0462CB2
:100540001CD104E0522C13D0532C17D117E040F6E5
:10055000C411084600F0B8F916E00C49084600F04E
:10056000B3F911E04FF4FA61484200F0ADF90BE045
:100570000649C831484200F0A7F905E000BF002154
:10058000084600F0A1F900BF00BF10BD68F7FFFFEB
:100590002DE9F0410246002500260020002300241A
:1005A000002791F803C00CF00F0591F803C00CF080
:1005B000100CBCF1000F03D091F802C04CEA050505
:1005C00091F800C0BCF1000F31D0146800202BE07E
:1005D0004FF0010C0CFA00F3B1F800C00CEA03066E
:1005E0009E4220D183004FF00F0C0CFA03F7BC435E
:1005F00005FA03FC4CEA040491F803C0BCF1280F8F
:1006000006D14FF0010C0CFA00FCC2F814C00AE04D
:1006100091F803C0BCF1480F05D14FF0010C0CFA62
:1006200000FCC2F810C0401C0828D1D31460B1F8F7
:1006300000C0BCF1FF0F34DD546800202EE000F153
:10064000080C4FF0010808FA0CF3B1F800C00CEAEE
:1006500003069E4221D183004FF00F0C0CFA03F7E2
:10066000BC4305FA03FC4CEA040491F803C0BCF156
:10067000280F05D100F1080C08FA0CF8C2F8148014
:1006800091F803C0BCF1480F07D100F1080C4FF0FE
:10069000010808FA0CF8C2F81080401C0828CED3D4
:1006A0005460BDE8F0810246002093680B400BB116
:1006B000012000E00020704700BFFEE70146490628
:1006C000084A926942F00102064B9A61064A526852
:1006D00022F0E062044B5A601A4652680A435A609C
:1006E00070470000001002400000014000B50020EB
:1006F00015490861C8601420486100208861C861FC
:100700000846006840F001000860084640680F494C
:1007100008400D494860084600680D4908400A49EC
:1007200008600846006820F4802008600846406899
:1007300020F4FE0048600020886000214FF0006037
:1007400000F01CF800BD0000001002400000FFF89F
:10075000FFFFF6FE0146072323EA01021202054BC2
:1007600018684FF6FF031840034B18431043014B22
:10077000186070470CED00E00000FA05024A0A40DC
:100780000243024B1A60704780FFFF1F08ED00E034
:1007900000BFFEE708B50121082000F083F84FF400
:1007A000C040ADF8000010208DF8030003208DF844
:1007B000020069460448FFF7EBFE00200349086089
:1007C0000349C1F8B40108BD000C0140B8812142C1
:1007D000008021427047000030B589B005460C46C4
:1007E000FFF7D8FF0121042000F04CF80121082078
:1007F00000F058F8C020ADF8200018208DF8230034
:1008000003208DF8220008A91B48FFF7C1FEADF8B0
:100810001850ADF814400020ADF8160005A917488F
:1008200000F092FA6020ADF804000120ADF8060057
:100830000020ADF80A00ADF80C0001A90F4800F047
:10084000CDF901A90D4800F01FFA01210B4800F075
:10085000B5F90821094800F00DFA0821074800F011
:1008600065FA0121054800F091F90121034800F0E3
:1008700099F909B030BD0000000C014000080040AB
:100880007047000029B1064AD2690243044BDA617D
:1008900004E0034AD2698243014BDA6170470000E9
:1008A0000010024029B1064A92690243044B9A6142
:1008B00004E0034A92698243014B9A617047000049
:1008C000001002407047000010B50246084611466D
:1008D000002905DB00230F4C23600F4C218005E02D
:1008E00001230C4C23604B420B4C2380002807DB78
:1008F0000023084C241F2360074C241D208007E0A0
:100900000123044C241F23604342034C241D2380F5
:1009100010BD0000B88121423408004008B5012113
:100920000820FFF7BFFF4FF48070ADF800000420EF
:100930008DF8030069460248FFF72AFE08BD000053
:10094000000C01402DE9F04105460026002706E095
:100950007F1C1A48874202D90020BDE8F0814FF47D
:1009600080711748FFF79FFE0128F1D0012015493B
:100970000870042000F054FB00240EE0082000F072
:100980004FFB4FF480710E48FFF78DFE012802D116
:10099000A0403043C6B2601CC4B2082CEEDB082075
:1009A00000F03EFB2E7008480068401C06490860B5
:1009B0000020044908700120CFE70000A086010054
:1009C000000C0140340000203000002030B5044607
:1009D0000025FFF78BFE1F48006840F480301D495A
:1009E000086000BF1B480068400C0028FAD04FF494
:1009F000806018494860A01EC4B20846406840EABA
:100A0000844048600846406840F48030486012489E
:100A1000006840F03200104908600E48006840F05D
:100A200080700C49086000BF0A480068400E00282A
:100A3000FAD00848406840F002000649486005E0E6
:100A400004484068C0F3870505F00305022DF7D17F
:100A500030BD00000010024000200240042808D1F0
:100A60004FF0E021096941F004014FF0E0221161EB
:100A700007E04FF0E021096921F004014FF0E02286
:100A80001161704710B509480068401C07490860AB
:100A9000084600686421B0FBF1F201FB120020B9A6
:100AA00000200249086000F003F810BD000000209B
:100AB000F8B500270024002500262748007810B349
:100AC00026484778C4780078012800D17F4223481F
:100AD0008078012800D16442962F00DD962717F117
:100AE000960F01DA6FF09507962C00DD962414F12D
:100AF000960F01DA6FF095041948076019480460F1
:100B00000020154908701648006800EB401515488C
:100B1000006800EB401641F28830854200DD054652
:100B20001148854200DA054641F28830864200DDF0
:100B300006460D48864200DA064631462846FFF74B
:100B4000C3FE2B460748009602680548016807A0C7
:100B5000FFF76AFBF8BD0000210000201D00002007
:100B6000280000202C00002078ECFFFF73706565E2
:100B7000643A2025642C2025642C2050574D3A20BF
:100B800025642C2025640D0A0000000021B1028894
:100B900042F08002028004E002884FF67F731A4020
:100BA0000280704721B1028842F00102028004E015
:100BB00002884FF6FE731A400280704731B1B0F8D8
:100BC000442042F40042A0F8442005E0B0F844205C
:100BD000C2F30E02A0F844207047000070B5002454
:100BE00000220023058C4FF6FE7635400584028CEA
:100BF0008388048B4FF68F752C40B51E2C400D88D2
:100C00002C43751E2A400D892A434D882A43144DD2
:100C1000A8420BD0134DA84208D0134DA84205D0CE
:100C2000124DA84202D0124DA84213D14FF6F775CB
:100C30002A404D892A434FF6FB752A408D882A4366
:100C40004FF6FF652B404FF6FF552B408D892B4308
:100C5000CD892B4383800483CD888586028470BD33
:100C6000002C01400034014000400140004401409C
:100C7000004801400A460021018B4FF6F7731940E6
:100C8000114301837047000070B500240022002347
:100C9000058C4FF6EF7635400584028C8388048BF3
:100CA00048F6FF752C404FF6FF452C400D884FF657
:100CB000FF7606EA05252C434FF6DF752A400D899D
:100CC00006EA05152A434D8806EA05152A43154DFF
:100CD000A84202D0144DA8421DD14FF67F752A407C
:100CE0004D894FF6FF7606EA05152A434FF6BF7584
:100CF0002A408D8806EA05152A434FF6FF352B401A
:100D00004FF2FF752B408D8906EA85052B43CD896F
:100D100006EA85052B4383800483CD8805870284FA
:100D200070BD0000002C0140003401400A46002143
:100D3000018B4FF2FF7319404FF6FF7303EA022352
:100D40001943018370470000002202881D4B98421E
:100D50000ED01D4B98420BD0B0F1804F08D01B4BEA
:100D6000984205D01A4B984202D01A4B984204D1AF
:100D70004FF68F731A404B881A43174B984207D08F
:100D8000164B984204D04FF6FF431A40CB881A43C3
:100D900002808B8883850B8803850A4B98420BD091
:100DA000094B984208D00E4B984205D00D4B984203
:100DB00002D00D4B984201D10B7A03860123838226
:100DC00070470000002C0140003401400004004046
:100DD00000080040000C00400010004000140040DB
:100DE00000400140004401400048014010B540F27D
:100DF0002551304800F097F8002856D02D4800F0D3
:100E0000BCF8C4B24B2C42D006DC412C1BD0442C85
:100E100023D0492C43D132E04F2C28D0532C0AD078
:100E2000572C3CD14FF4FA610846FFF74DFD22A044
:100E3000FFF7FAF938E023490846FFF745FD22A0FD
:100E4000FFF7F2F930E040F6B8314FF47A70FFF76F
:100E50003BFD20A0FFF7E8F926E04FF47A7140F659
:100E6000B830FFF731FD1DA0FFF7DEF91CE00021CF
:100E70000846FFF729FD1BA0FFF7D6F914E064210F
:100E80000846FFF721FD19A0FFF7CEF90CE09621E7
:100E90000846FFF719FD18A0FFF7C6F904E0214640
:100EA00018A0FFF7C1F900BF00BF2021014800F0E2
:100EB00031F810BD00380140466F72776172640DE1
:100EC0000A00000030F8FFFF4261636B77617264D3
:100ED0000D0A00004C6566740D0A000052696768CF
:100EE000740D0A0053746F700D0A0000537065652D
:100EF00064203130300D0A0053706565642031354F
:100F0000300D0A00556E6B6E6F776E3A2025630DBB
:100F10000A00000001F40072B2F5007F00D100BFAA
:100F2000CA430280704770B50246002400230025A2
:100F3000002040F66A16B14200D100BFC1F342154D
:100F400001F01F03012606FA03F3012D02D1968951
:100F5000334006E0022D02D1168A334001E0968A22
:100F600033400C12012606FA04F41688344013B1FB
:100F70000CB1012000E0002070BD01468888C0F35C
:100F80000800704700BFFEE7014600BF7047000041
:100F900010B56FF00400FFF761FD0A4800680A49C8
:100FA000B0FBF1F0094908700846007800EB4001F9
:100FB000C1EBC0104FF6FF7101EAC0000449088080
:100FC00010BD00000400002000127A00180000206C
:100FD0001A0000200146114A12884A434FF0E023CC
:100FE0005A6100229A611A46126942F001021A619E
:100FF00000BF4FF0E022106900F001021AB100F4C6
:101000008032002AF5D04FF0E022126922F001026E
:101010004FF0E0231A6100229A6170471A00002005
:101020000146114A12784A434FF0E0235A610022E8
:101030009A611A46126942F001021A6100BF4FF02C
:10104000E022106900F001021AB100F48032002A97
:10105000F5D04FF0E022126922F001024FF0E023B8
:101060001A6100229A6170471800002000BF054AEB
:10107000128802F04002002AF9D0C2B2014B1B1DB7
:101080001A8070470038014008B50920FFF79EFC20
:101090000220FFF75FFBFFF77BFF0220FFF70EFB4D
:1010A0000120FFF70BFB092141F61F40FFF794FBDE
:1010B000FFF734FCFFF734FA0AE06846FFF742FC1A
:1010C00018B19DF80000FFF733FA0A20FFF782FFFE
:1010D000F3E70000F41000080000002038000000D2
:1010E0006C0100082C11000838000020600200008C
:1010F000880100080000000000A24A04000000006F
:1011000000000000010203040607080900000000B7
:1011100000000000000000000000000000000000CF
:0C112000000000000000000000000000C3
:04000005080001DF0F
:00000001FF
